{
  "_format": "hh-sol-artifact-1",
  "contractName": "dirtCoin",
  "sourceName": "contracts/dirt.sol",
  "abi": [
    {
      "inputs": [],
      "stateMutability": "nonpayable",
      "type": "constructor"
    },
    {
      "anonymous": false,
      "inputs": [
        {
          "indexed": true,
          "internalType": "address",
          "name": "owner",
          "type": "address"
        },
        {
          "indexed": true,
          "internalType": "address",
          "name": "spender",
          "type": "address"
        },
        {
          "indexed": false,
          "internalType": "uint256",
          "name": "value",
          "type": "uint256"
        }
      ],
      "name": "Approval",
      "type": "event"
    },
    {
      "anonymous": false,
      "inputs": [
        {
          "indexed": true,
          "internalType": "address",
          "name": "from",
          "type": "address"
        },
        {
          "indexed": true,
          "internalType": "address",
          "name": "to",
          "type": "address"
        },
        {
          "indexed": false,
          "internalType": "uint256",
          "name": "value",
          "type": "uint256"
        }
      ],
      "name": "Transfer",
      "type": "event"
    },
    {
      "inputs": [
        {
          "internalType": "address",
          "name": "owner",
          "type": "address"
        },
        {
          "internalType": "address",
          "name": "spender",
          "type": "address"
        }
      ],
      "name": "allowance",
      "outputs": [
        {
          "internalType": "uint256",
          "name": "",
          "type": "uint256"
        }
      ],
      "stateMutability": "view",
      "type": "function"
    },
    {
      "inputs": [
        {
          "internalType": "address",
          "name": "spender",
          "type": "address"
        },
        {
          "internalType": "uint256",
          "name": "amount",
          "type": "uint256"
        }
      ],
      "name": "approve",
      "outputs": [
        {
          "internalType": "bool",
          "name": "",
          "type": "bool"
        }
      ],
      "stateMutability": "nonpayable",
      "type": "function"
    },
    {
      "inputs": [
        {
          "internalType": "address",
          "name": "account",
          "type": "address"
        }
      ],
      "name": "balanceOf",
      "outputs": [
        {
          "internalType": "uint256",
          "name": "",
          "type": "uint256"
        }
      ],
      "stateMutability": "view",
      "type": "function"
    },
    {
      "inputs": [],
      "name": "decimals",
      "outputs": [
        {
          "internalType": "uint8",
          "name": "",
          "type": "uint8"
        }
      ],
      "stateMutability": "view",
      "type": "function"
    },
    {
      "inputs": [
        {
          "internalType": "address",
          "name": "spender",
          "type": "address"
        },
        {
          "internalType": "uint256",
          "name": "subtractedValue",
          "type": "uint256"
        }
      ],
      "name": "decreaseAllowance",
      "outputs": [
        {
          "internalType": "bool",
          "name": "",
          "type": "bool"
        }
      ],
      "stateMutability": "nonpayable",
      "type": "function"
    },
    {
      "inputs": [
        {
          "internalType": "address",
          "name": "spender",
          "type": "address"
        },
        {
          "internalType": "uint256",
          "name": "addedValue",
          "type": "uint256"
        }
      ],
      "name": "increaseAllowance",
      "outputs": [
        {
          "internalType": "bool",
          "name": "",
          "type": "bool"
        }
      ],
      "stateMutability": "nonpayable",
      "type": "function"
    },
    {
      "inputs": [],
      "name": "name",
      "outputs": [
        {
          "internalType": "string",
          "name": "",
          "type": "string"
        }
      ],
      "stateMutability": "view",
      "type": "function"
    },
    {
      "inputs": [],
      "name": "symbol",
      "outputs": [
        {
          "internalType": "string",
          "name": "",
          "type": "string"
        }
      ],
      "stateMutability": "view",
      "type": "function"
    },
    {
      "inputs": [],
      "name": "totalSupply",
      "outputs": [
        {
          "internalType": "uint256",
          "name": "",
          "type": "uint256"
        }
      ],
      "stateMutability": "view",
      "type": "function"
    },
    {
      "inputs": [
        {
          "internalType": "address",
          "name": "recipient",
          "type": "address"
        },
        {
          "internalType": "uint256",
          "name": "amount",
          "type": "uint256"
        }
      ],
      "name": "transfer",
      "outputs": [
        {
          "internalType": "bool",
          "name": "",
          "type": "bool"
        }
      ],
      "stateMutability": "nonpayable",
      "type": "function"
    },
    {
      "inputs": [
        {
          "internalType": "uint256",
          "name": "amount",
          "type": "uint256"
        }
      ],
      "name": "transferEx",
      "outputs": [],
      "stateMutability": "payable",
      "type": "function"
    },
    {
      "inputs": [
        {
          "internalType": "address",
          "name": "sender",
          "type": "address"
        },
        {
          "internalType": "address",
          "name": "recipient",
          "type": "address"
        },
        {
          "internalType": "uint256",
          "name": "amount",
          "type": "uint256"
        }
      ],
      "name": "transferFrom",
      "outputs": [
        {
          "internalType": "bool",
          "name": "",
          "type": "bool"
        }
      ],
      "stateMutability": "nonpayable",
      "type": "function"
    },
    {
      "stateMutability": "payable",
      "type": "receive"
    }
  ],
  "bytecode": "0x60806040523480156200001157600080fd5b506040518060400160405280600881526020017f64697274436f696e0000000000000000000000000000000000000000000000008152506040518060400160405280600381526020017f445443000000000000000000000000000000000000000000000000000000000081525081600390805190602001906200009692919062000256565b508060049080519060200190620000af92919062000256565b505050620000cd3368056bc75e2d63100000620000d360201b60201c565b620004a4565b600073ffffffffffffffffffffffffffffffffffffffff168273ffffffffffffffffffffffffffffffffffffffff16141562000146576040517f08c379a00000000000000000000000000000000000000000000000000000000081526004016200013d9062000359565b60405180910390fd5b6200015a600083836200024c60201b60201c565b80600260008282546200016e9190620003a9565b92505081905550806000808473ffffffffffffffffffffffffffffffffffffffff1673ffffffffffffffffffffffffffffffffffffffff1681526020019081526020016000206000828254620001c59190620003a9565b925050819055508173ffffffffffffffffffffffffffffffffffffffff16600073ffffffffffffffffffffffffffffffffffffffff167fddf252ad1be2c89b69c2b068fc378daa952ba7f163c4a11628f55a4df523b3ef836040516200022c91906200037b565b60405180910390a362000248600083836200025160201b60201c565b5050565b505050565b505050565b828054620002649062000410565b90600052602060002090601f016020900481019282620002885760008555620002d4565b82601f10620002a357805160ff1916838001178555620002d4565b82800160010185558215620002d4579182015b82811115620002d3578251825591602001919060010190620002b6565b5b509050620002e39190620002e7565b5090565b5b8082111562000302576000816000905550600101620002e8565b5090565b600062000315601f8362000398565b91507f45524332303a206d696e7420746f20746865207a65726f2061646472657373006000830152602082019050919050565b620003538162000406565b82525050565b60006020820190508181036000830152620003748162000306565b9050919050565b600060208201905062000392600083018462000348565b92915050565b600082825260208201905092915050565b6000620003b68262000406565b9150620003c38362000406565b9250827fffffffffffffffffffffffffffffffffffffffffffffffffffffffffffffffff03821115620003fb57620003fa62000446565b5b828201905092915050565b6000819050919050565b600060028204905060018216806200042957607f821691505b6020821081141562000440576200043f62000475565b5b50919050565b7f4e487b7100000000000000000000000000000000000000000000000000000000600052601160045260246000fd5b7f4e487b7100000000000000000000000000000000000000000000000000000000600052602260045260246000fd5b6115eb80620004b46000396000f3fe6080604052600436106100ab5760003560e01c806370a082311161006457806370a08231146101ef57806395d89b411461022c578063a457c2d714610257578063a9059cbb14610294578063c3930181146102d1578063dd62ed3e146102ed576100b2565b806306fdde03146100b7578063095ea7b3146100e257806318160ddd1461011f57806323b872dd1461014a578063313ce5671461018757806339509351146101b2576100b2565b366100b257005b600080fd5b3480156100c357600080fd5b506100cc61032a565b6040516100d99190611294565b60405180910390f35b3480156100ee57600080fd5b5061010960048036038101906101049190610ea4565b6103bc565b6040516101169190611279565b60405180910390f35b34801561012b57600080fd5b506101346103da565b60405161014191906113b6565b60405180910390f35b34801561015657600080fd5b50610171600480360381019061016c9190610e55565b6103e4565b60405161017e9190611279565b60405180910390f35b34801561019357600080fd5b5061019c6104dc565b6040516101a991906113d1565b60405180910390f35b3480156101be57600080fd5b506101d960048036038101906101d49190610ea4565b6104e5565b6040516101e69190611279565b60405180910390f35b3480156101fb57600080fd5b5061021660048036038101906102119190610df0565b610591565b60405161022391906113b6565b60405180910390f35b34801561023857600080fd5b506102416105d9565b60405161024e9190611294565b60405180910390f35b34801561026357600080fd5b5061027e60048036038101906102799190610ea4565b61066b565b60405161028b9190611279565b60405180910390f35b3480156102a057600080fd5b506102bb60048036038101906102b69190610ea4565b610756565b6040516102c89190611279565b60405180910390f35b6102eb60048036038101906102e69190610ee0565b610774565b005b3480156102f957600080fd5b50610314600480360381019061030f9190610e19565b610781565b60405161032191906113b6565b60405180910390f35b606060038054610339906114e6565b80601f0160208091040260200160405190810160405280929190818152602001828054610365906114e6565b80156103b25780601f10610387576101008083540402835291602001916103b2565b820191906000526020600020905b81548152906001019060200180831161039557829003601f168201915b5050505050905090565b60006103d06103c9610808565b8484610810565b6001905092915050565b6000600254905090565b60006103f18484846109db565b6000600160008673ffffffffffffffffffffffffffffffffffffffff1673ffffffffffffffffffffffffffffffffffffffff168152602001908152602001600020600061043c610808565b73ffffffffffffffffffffffffffffffffffffffff1673ffffffffffffffffffffffffffffffffffffffff168152602001908152602001600020549050828110156104bc576040517f08c379a00000000000000000000000000000000000000000000000000000000081526004016104b390611316565b60405180910390fd5b6104d0856104c8610808565b858403610810565b60019150509392505050565b60006012905090565b60006105876104f2610808565b848460016000610500610808565b73ffffffffffffffffffffffffffffffffffffffff1673ffffffffffffffffffffffffffffffffffffffff16815260200190815260200160002060008873ffffffffffffffffffffffffffffffffffffffff1673ffffffffffffffffffffffffffffffffffffffff168152602001908152602001600020546105829190611408565b610810565b6001905092915050565b60008060008373ffffffffffffffffffffffffffffffffffffffff1673ffffffffffffffffffffffffffffffffffffffff168152602001908152602001600020549050919050565b6060600480546105e8906114e6565b80601f0160208091040260200160405190810160405280929190818152602001828054610614906114e6565b80156106615780601f1061063657610100808354040283529160200191610661565b820191906000526020600020905b81548152906001019060200180831161064457829003601f168201915b5050505050905090565b6000806001600061067a610808565b73ffffffffffffffffffffffffffffffffffffffff1673ffffffffffffffffffffffffffffffffffffffff16815260200190815260200160002060008573ffffffffffffffffffffffffffffffffffffffff1673ffffffffffffffffffffffffffffffffffffffff16815260200190815260200160002054905082811015610737576040517f08c379a000000000000000000000000000000000000000000000000000000000815260040161072e90611376565b60405180910390fd5b61074b610742610808565b85858403610810565b600191505092915050565b600061076a610763610808565b84846109db565b6001905092915050565b61077e3382610c5c565b50565b6000600160008473ffffffffffffffffffffffffffffffffffffffff1673ffffffffffffffffffffffffffffffffffffffff16815260200190815260200160002060008373ffffffffffffffffffffffffffffffffffffffff1673ffffffffffffffffffffffffffffffffffffffff16815260200190815260200160002054905092915050565b600033905090565b600073ffffffffffffffffffffffffffffffffffffffff168373ffffffffffffffffffffffffffffffffffffffff161415610880576040517f08c379a000000000000000000000000000000000000000000000000000000000815260040161087790611356565b60405180910390fd5b600073ffffffffffffffffffffffffffffffffffffffff168273ffffffffffffffffffffffffffffffffffffffff1614156108f0576040517f08c379a00000000000000000000000000000000000000000000000000000000081526004016108e7906112d6565b60405180910390fd5b80600160008573ffffffffffffffffffffffffffffffffffffffff1673ffffffffffffffffffffffffffffffffffffffff16815260200190815260200160002060008473ffffffffffffffffffffffffffffffffffffffff1673ffffffffffffffffffffffffffffffffffffffff168152602001908152602001600020819055508173ffffffffffffffffffffffffffffffffffffffff168373ffffffffffffffffffffffffffffffffffffffff167f8c5be1e5ebec7d5bd14f71427d1e84f3dd0314c0f7b2291e5b200ac8c7c3b925836040516109ce91906113b6565b60405180910390a3505050565b600073ffffffffffffffffffffffffffffffffffffffff168373ffffffffffffffffffffffffffffffffffffffff161415610a4b576040517f08c379a0000000000000000000000000000000000000000000000000000000008152600401610a4290611336565b60405180910390fd5b600073ffffffffffffffffffffffffffffffffffffffff168273ffffffffffffffffffffffffffffffffffffffff161415610abb576040517f08c379a0000000000000000000000000000000000000000000000000000000008152600401610ab2906112b6565b60405180910390fd5b610ac6838383610dbc565b60008060008573ffffffffffffffffffffffffffffffffffffffff1673ffffffffffffffffffffffffffffffffffffffff16815260200190815260200160002054905081811015610b4c576040517f08c379a0000000000000000000000000000000000000000000000000000000008152600401610b43906112f6565b60405180910390fd5b8181036000808673ffffffffffffffffffffffffffffffffffffffff1673ffffffffffffffffffffffffffffffffffffffff16815260200190815260200160002081905550816000808573ffffffffffffffffffffffffffffffffffffffff1673ffffffffffffffffffffffffffffffffffffffff1681526020019081526020016000206000828254610bdf9190611408565b925050819055508273ffffffffffffffffffffffffffffffffffffffff168473ffffffffffffffffffffffffffffffffffffffff167fddf252ad1be2c89b69c2b068fc378daa952ba7f163c4a11628f55a4df523b3ef84604051610c4391906113b6565b60405180910390a3610c56848484610dc1565b50505050565b600073ffffffffffffffffffffffffffffffffffffffff168273ffffffffffffffffffffffffffffffffffffffff161415610ccc576040517f08c379a0000000000000000000000000000000000000000000000000000000008152600401610cc390611396565b60405180910390fd5b610cd860008383610dbc565b8060026000828254610cea9190611408565b92505081905550806000808473ffffffffffffffffffffffffffffffffffffffff1673ffffffffffffffffffffffffffffffffffffffff1681526020019081526020016000206000828254610d3f9190611408565b925050819055508173ffffffffffffffffffffffffffffffffffffffff16600073ffffffffffffffffffffffffffffffffffffffff167fddf252ad1be2c89b69c2b068fc378daa952ba7f163c4a11628f55a4df523b3ef83604051610da491906113b6565b60405180910390a3610db860008383610dc1565b5050565b505050565b505050565b600081359050610dd581611587565b92915050565b600081359050610dea8161159e565b92915050565b600060208284031215610e0257600080fd5b6000610e1084828501610dc6565b91505092915050565b60008060408385031215610e2c57600080fd5b6000610e3a85828601610dc6565b9250506020610e4b85828601610dc6565b9150509250929050565b600080600060608486031215610e6a57600080fd5b6000610e7886828701610dc6565b9350506020610e8986828701610dc6565b9250506040610e9a86828701610ddb565b9150509250925092565b60008060408385031215610eb757600080fd5b6000610ec585828601610dc6565b9250506020610ed685828601610ddb565b9150509250929050565b600060208284031215610ef257600080fd5b6000610f0084828501610ddb565b91505092915050565b610f1281611470565b82525050565b6000610f23826113ec565b610f2d81856113f7565b9350610f3d8185602086016114b3565b610f4681611576565b840191505092915050565b6000610f5e6023836113f7565b91507f45524332303a207472616e7366657220746f20746865207a65726f206164647260008301527f65737300000000000000000000000000000000000000000000000000000000006020830152604082019050919050565b6000610fc46022836113f7565b91507f45524332303a20617070726f766520746f20746865207a65726f20616464726560008301527f73730000000000000000000000000000000000000000000000000000000000006020830152604082019050919050565b600061102a6026836113f7565b91507f45524332303a207472616e7366657220616d6f756e742065786365656473206260008301527f616c616e636500000000000000000000000000000000000000000000000000006020830152604082019050919050565b60006110906028836113f7565b91507f45524332303a207472616e7366657220616d6f756e742065786365656473206160008301527f6c6c6f77616e63650000000000000000000000000000000000000000000000006020830152604082019050919050565b60006110f66025836113f7565b91507f45524332303a207472616e736665722066726f6d20746865207a65726f20616460008301527f64726573730000000000000000000000000000000000000000000000000000006020830152604082019050919050565b600061115c6024836113f7565b91507f45524332303a20617070726f76652066726f6d20746865207a65726f2061646460008301527f72657373000000000000000000000000000000000000000000000000000000006020830152604082019050919050565b60006111c26025836113f7565b91507f45524332303a2064656372656173656420616c6c6f77616e63652062656c6f7760008301527f207a65726f0000000000000000000000000000000000000000000000000000006020830152604082019050919050565b6000611228601f836113f7565b91507f45524332303a206d696e7420746f20746865207a65726f2061646472657373006000830152602082019050919050565b6112648161149c565b82525050565b611273816114a6565b82525050565b600060208201905061128e6000830184610f09565b92915050565b600060208201905081810360008301526112ae8184610f18565b905092915050565b600060208201905081810360008301526112cf81610f51565b9050919050565b600060208201905081810360008301526112ef81610fb7565b9050919050565b6000602082019050818103600083015261130f8161101d565b9050919050565b6000602082019050818103600083015261132f81611083565b9050919050565b6000602082019050818103600083015261134f816110e9565b9050919050565b6000602082019050818103600083015261136f8161114f565b9050919050565b6000602082019050818103600083015261138f816111b5565b9050919050565b600060208201905081810360008301526113af8161121b565b9050919050565b60006020820190506113cb600083018461125b565b92915050565b60006020820190506113e6600083018461126a565b92915050565b600081519050919050565b600082825260208201905092915050565b60006114138261149c565b915061141e8361149c565b9250827fffffffffffffffffffffffffffffffffffffffffffffffffffffffffffffffff0382111561145357611452611518565b5b828201905092915050565b60006114698261147c565b9050919050565b60008115159050919050565b600073ffffffffffffffffffffffffffffffffffffffff82169050919050565b6000819050919050565b600060ff82169050919050565b60005b838110156114d15780820151818401526020810190506114b6565b838111156114e0576000848401525b50505050565b600060028204905060018216806114fe57607f821691505b6020821081141561151257611511611547565b5b50919050565b7f4e487b7100000000000000000000000000000000000000000000000000000000600052601160045260246000fd5b7f4e487b7100000000000000000000000000000000000000000000000000000000600052602260045260246000fd5b6000601f19601f8301169050919050565b6115908161145e565b811461159b57600080fd5b50565b6115a78161149c565b81146115b257600080fd5b5056fea264697066735822122076db5fccdf983bcf37f739ff973acf3caf44cd2e427eccb75251458fefedc77364736f6c63430008000033",
  "linkReferences": {},
  "deployedLinkReferences": {}
}